:1000000000400020C5390000FB390000FD39000028
:10001000FF390000013A0000033A0000F9390000FE
:10002000F9390000F9390000F9390000053A0000FB
:10003000073A0000F9390000093A00000B3A0000C5
:10004000E10800000F3A0000113A0000133A0000E6
:10005000153A0000173A0000193A00001B3A000058
:100060001D3A00001F3A0000213A0000233A000028
:10007000253A0000273A0000293A00002B3A0000F8
:100080002D3A00002F3A0000313A0000333A0000C8
:10009000353A0000373A0000393A00003B3A000098
:1000A000092800003F3A0000413A0000433A0000AE
:1000B000453A0000473A0000000000000000000040
:1000C0000000000000000000000000000000000030
:1000D0000000000000000000000000000000000020
:1000E0000000000000000000000000000000000010
:1000F0000000000000000000000000000000000000
:1001000010B5054C237833B9044B13B10448AFF351
:1001100000800123237010BD000B002000000000B0
:100120003468000008B5064B1BB106480649AFF31A
:1001300000800648036813B1054B03B1984708BD1A
:100140000000000034680000040B0020040A0020B6
:1001500000000000154B002B08BF134B9D46A3F574
:10016000803A00218B460F461348144A121A03F0B6
:10017000A3FC0F4B002B00D098470E4B002B00D058
:1001800098470020002104000D000D48002802D0EF
:100190000C4804F073FD03F067FC2000290002F016
:1001A00067FB03F051FC00BF000008000040002086
:1001B0000000000000000000000B0020682A002062
:1001C0007D4C0000894C0000204AD36A03F4705330
:1001D000B3F5805F35D0B3F5005F04D0B3F5006FA1
:1001E00004D11B4B00E01B4B18687047D36803F425
:1001F000E063B3F5007F16D008D8B3B1B3F5807FC4
:100200001DD1154B154AD86C154B12E0B3F5806F14
:100210001AD0B3F5A06F04D0B3F5407F0FD11148C9
:10022000704711487047114870470B4B104AD86C03
:10023000104BB0F1985F34BF10461846704700204D
:1002400070474FF4004070470B48704700800C40E7
:100250000400002000000020B081E00FC0CF6A0041
:1002600040B56400809FD500003FAB01C0D8A70017
:1002700040420F00804F1200406F400108B5FFF769
:10028000A3FF044B5B6803F00F03D840024B1860D8
:1002900008BD00BF00800C401C28002070474FF4B0
:1002A00000407047014B1868704700BF00000020F5
:1002B000FEE700000A494B6803F00702032A0CD846
:1002C000DFE802F00202070723F0070343F001030F
:1002D00003E023F0070343F003034B60704700BFC4
:1002E00000000C40104A10B5104C11490244A242C3
:1002F0004B680BD803F00702023A012A23F00703E8
:1003000094BF43F0030343F001030BE0094A90421A
:1003100008D803F00702023A012A23F0070398BF26
:1003200043F002034B6010BDFFDB0BFFFF23F40023
:1003300000000C400024F400431EB3F5004F10B53C
:10034000044603D304488721FFF7B2FFB4FA84F4CC
:10035000E0B2C0F11F0010BD38610000034B5A6DC0
:10036000D20702D41A6D1042FCD1704700800C40B5
:10037000012810B5044604D90F4840F27711FFF761
:1003800097FF0E4B6400986AE04000F003000228DB
:1003900007D0032809D001280BD1BDE81040FFF792
:1003A0007EBFBDE81040FFF77DBFFFF767FF400845
:1003B00010BD002010BD00BF3861000000800C405F
:1003C000C0F30313013B10B50C46032B00F29A80D7
:1003D000DFE803F002152E644B1EB3F5007F04D353
:1003E0004C4840F21A31FFF763FF2046FFF7A4FFA5
:1003F000494B9A6822F00F021043986010BDB1F586
:10040000007F04D9434840F22231FFF751FFFFF744
:1004100051FF2046FFF790FF3F4B5A6822F00F0232
:1004200010435860FFF72AFFBDE81040FFF75ABF9E
:100430003A4B984204D003F50433984214D029E093
:10044000B1F5004F04D9334840F25131FFF730FF86
:100450000420FFF783FF2046FFF76EFF2E4B9A6EB6
:1004600022F00F02104313E0B1F5004F04D92948E0
:1004700040F25F31FFF71CFF0420FFF76FFF2046BB
:10048000FFF75AFF244B9A6E22F0F00242EA001066
:10049000986610BD1F4840F28B3136E0204B9842E1
:1004A00004D003F50433984213D027E0082904D977
:1004B000184840F29531FFF7FBFE4020FFF74EFF52
:1004C0002046FFF739FF144B1A6F22F00302104346
:1004D00012E0082904D90F484FF46971FFF7E8FECC
:1004E0004020FFF73BFF2046FFF726FF0A4B1A6F1D
:1004F00022F0300242EA0010186710BD054840F2B1
:10050000B23102E003484FF46E71BDE81040FFF7CE
:10051000CFBE00BF3861000000800C4030040800EE
:1005200040051400C0F30323013B70B50D46052BB5
:1005300010D8DFE803F016190306090C0023124C4B
:1005400014E00123114C11E01023114C0EE00023A4
:10055000104C0BE0104840F20D41BDE87040FFF731
:10056000A7BE00230D4C01E00D4C0023C0F3043660
:1005700013B11846FFF7F2FE04F1047406EBC4064B
:10058000B600356070BD00BF40800C4058800C4004
:1005900060800C4078800C403861000008800C407E
:1005A00044800C4000F00F00013808B503282ED815
:1005B000DFE800F002141E341A4BDB6A03F47053B8
:1005C000B3F5805F08D0B3F5005F29D0B3F5006FB5
:1005D0000CBF0420052008BD032008BD114B986AFC
:1005E00000F0030002281CD003280ED0012808E0E8
:1005F0000C4B9B6A03F00C03082B11D00C2B04D07E
:10060000042B0CBF0320012008BD062008BD0648AE
:1006100040F25551FFF74CFE002008BD072008BDF1
:10062000022008BD00800C403861000000F4781002
:10063000B0F5202F08B53CD019D8B0F5802F2FD0B9
:1006400009D8002852D0B0F5003F57D1FFF7BCFDC4
:100650002F4B9B682AE0B0F5C02F25D0B0F5002FB6
:100660004CD10020FFF784FE294B9B6E1EE0B0F5B5
:10067000B01F2CD00DD8B0F5901F23D0B0F5A01F1F
:100680003CD10120FFF774FE214B1B6F03F00303E5
:1006900016E0B0F5C01F22D0B0F5D01F35D02DE048
:1006A000BDE80840FFF7EABD00200CE003F00F03AF
:1006B00006E00020FFF75CFE154B9B6EC3F30313AF
:1006C000D84008BD0120BDE80840FFF751BE012019
:1006D000FFF74EFE0E4B1B6FC3F30113F0E70D48FF
:1006E000FFF760FF072810D0082803D1BDE80840B5
:1006F000FFF76ABD08484FF4B07102E0064840F2C7
:10070000B741FFF7D5FD002008BD044808BD00BF74
:1007100000800C400400180038610000809FD50064
:1007200010B504280FD8DFE800F0090618150300FB
:100730001020202313E04020802310E04FF480702D
:100740004FF400730BE00C4840F2F671BDE8104026
:10075000FFF7AEBD0120022301E004200823074C6F
:1007600029B1206222B1E26A1342FCD000E0236288
:10077000BDE8104000F0D8B93861000000800C409E
:1007800010B500F00F04012C03D055D3032C26D94B
:1007900052E00239032909D8DFE801F00C0F020505
:1007A000022004460BE00320012408E0264840F222
:1007B000C65144E00020042401E00120032401216B
:1007C0000A46FFF7ADFFFFF775FD204B5C6200F0B6
:1007D000ABF9FFF753FDBDE81040FFF783BD0139CA
:1007E000052917D8DFE801F01A030A1616110121AE
:1007F00000200A46FFF794FF022310E00120014683
:100800000246FFF78DFF012309E0114B01221A6018
:10081000032304E00C484FF4C26110E000230B4AAC
:10082000022C916A0BBF21F0030121F00C010B4354
:1008300041EA8303936210BD034840F27261BDE850
:100840001040FFF735BD00BF3861000000800C404C
:10085000080890432DE9F041DFF880800401D8F8C2
:1008600008C0069D079F089EA4441AB9D8F80C80BA
:10087000444400E06446DCF80CC0BCF1000F01D039
:100880008CF8082057B1D4F808C0CCF3816CBCF1C7
:10089000030F1CBF06FA0CFC674427603DB1A76834
:1008A000BF0F032F1CBF06FA07F7ED19656001257E
:1008B00005FA00F0094D0BB1A86100E0E8610AB14A
:1008C000686300E02863A36823F47F5323F03703B1
:1008D0000B4343EA0616A660BDE8F08100200C40F9
:1008E0001A4B1B4A41F20C0112682DE9F0415F5886
:1008F000174000D5FEE7D3F83880022607EA08053E
:100900000024EDB1EB0718D50121A1400F4B114A8E
:100910009B68116003EB0413DB6873B1197AD3F899
:1009200000C081F001021A72BCF1000F05D0003145
:10093000204618BF01215A68E0476D080134E0E7FE
:10094000013E27EA0805DBD1BDE8F08100200C401C
:1009500000300C4008300C402DE9FF4107280446C8
:100960000F46164698460B9D04D9104840F2CD110B
:10097000FFF79EFCB5F5806F04D30C484FF4E77188
:10098000FFF796FC0A9B20460193CDF80080334682
:10099000029501213A46FFF75DFF012303FA04F4B3
:1009A000034B9C6204B0BDE8F08100BF4E610000C3
:1009B00000200C40072838B504460D4604D91548D8
:1009C00040F2C521FFF774FC25B9124840F2C62158
:1009D000FFF76EFC104BAA68996801EB0411CA601E
:1009E00029780122A24009B19A6300E0DA636A68BB
:1009F00004F5886143F82120084B6A78234432B11A
:100A0000012202FA04F4044841F2080144509B0018
:100A10001A6038BD4E61000000200C406080E1107B
:100A2000072870B505460E46144604D9114840F211
:100A30001231FFF73DFC24B90E4840F21331FFF7A5
:100A400037FC0D4B0EB19B6800E0DB682279E17842
:100A5000920442EA8132217803EB0515A37860788D
:100A6000890741EA037141EA806141EA0363134364
:100A7000AB6070BD4E61000000200C400F4B0120A8
:100A8000C3F880000E4BFF2200215960DA615A62E0
:100A9000DA625A63DA63D86441F20C020948995069
:100AA00041F2080298500A4602F58861013200209E
:100AB000082A43F82100F7D1704700BF00E100E0A9
:100AC00000200C40FF00008010B5044620B91248F9
:100AD00040F2EB31FFF7ECFB237923B10E4840F2F3
:100AE000EE31FFF7E5FB01210C48FFF71BFDFFF797
:100AF000C5FF0B4B0122C3F880211A60094B41F25C
:100B00000C024FF00041995062689A6022785201BD
:100B100042F001025A6010BD4E6100000013040053
:100B200000E100E000200C40024BDA6A024B1A8020
:100B3000704700BF00800C401C0B00200528F8B552
:100B400005460C4616461F4601D80F2903D92248F0
:100B5000CB21FFF7ADFB76B101232422A34037B1AF
:100B60006A4302F1804202F5C042136103E002FBD6
:100B700005F11A4A535024226A43072C02F180429D
:100B800002F5C0420AD8A3000F21994006FA03F3E8
:100B9000506820EA01010B4353600CE004F18041EE
:100BA000083989000F238B4006FA01F1906820EA8A
:100BB0000303194391606EB90122242302FA04F45D
:100BC0005D432FB105F1804505F5C0452C61F8BDA9
:100BD000024B5C51F8BD00BF7A6100001460004018
:100BE000036CDB0702D4436C1942FCD17047000050
:100BF00070B504460D46164622B918484FF4847164
:100C0000FFF756FB9DB9164B9C420AD003F5806353
:100C10009C4208D0BDE8704010484FF49A71FFF72D
:100C200047BB104800E01048FFF700FD05466D0186
:100C3000B5FBF6F5203DED0047F6F8739D4204D96B
:100C4000064840F24111FFF733FB47F6F8762E4095
:100C500020460421FFF7C4FFE66070BD91610000EB
:100C6000004008404005140040151600164B70B5B2
:100C7000984204460D4608D003F58063984204D09C
:100C800012484FF4E671FFF713FB20460221FFF7ED
:100C9000A7FF0A236360666C002EFCD10123236446
:100CA00023682A7B23F01C0313436A7B20461343EB
:100CB000AA7B696813432360AA68FFF799FF2B7822
:100CC0006360266470BD00BF004008409161000071
:100CD000104B10B59842044608D003F58063984243
:100CE00004D00D4840F2F311FFF7E2FA636C002BD9
:100CF000FCD101222264EA22626040F2F972236090
:100D0000E36023616361A3636263E36363652364F8
:100D100010BD00BF004008409161000070B506465C
:100D20000D46144622B90F484FF4DA71FFF7C0FAA6
:100D30001DB90D48FFF77AFC0546631E03EB450518
:100D4000B5FBF4F4A401403C084B24F0FF029A42A6
:100D500004D9044840F2E311FFF7AAFA044B2340F8
:100D6000736170BDAA61000010810200C0FF1F0006
:100D700000FF1F00124B10B5984204460CD003F53B
:100D80008063984208D003F58063984204D00D48F0
:100D900040F22D31FFF78CFA40F6AA63E36041F28E
:100DA000050200232360626041F6F972A36063616B
:100DB000E364A264024A6365944208BF236510BDE0
:100DC00000C00040AA61000038B5194B04469842A3
:100DD0000D460CD003F58063984208D003F580637C
:100DE000984204D0134840F26121FFF761FA20468F
:100DF000FFF7C0FF2B8AAA7B216843F00103002A7A
:100E00009BB20CBF00224FF480620B43134323605C
:100E10002B7B204643F4805363606968AA68FFF720
:100E20007DFF6B7B0BB11023E3602B78E36038BD53
:100E300000C00040AA61000003695A06FCD5416366
:100E400003699B06FCD5C069C0B27047034B1A6AA0
:100E5000D20702D45A6A1042FCD170470000084001
:100E6000012838B504460D4602D811F07F4F03D053
:100E70000848A621FFF71CFA14B1012C03D038BD95
:100E80000220054C01E0054C0420FFF7DFFF256040
:100E900038BD00BFC2610000080008400C000840D7
:100EA00010B504460120FFF7D1FF4FF086431C60C8
:100EB00010BD0000437810B504780BB144F0020473
:100EC00083780BB144F004040120FFF7BFFF014B0E
:100ED0001C6010BD00000840044B41F67132DA631B
:100EE0009A6822F001029A60704700BF00000C402F
:100EF000034B9A6822F001029A600022DA6370477D
:100F000000000C4010B5044618B909483E21FFF70F
:100F1000CFF9084B1A6902F03F0222709A69DB6927
:100F200002F0F002C3F303131343637010BD00BF5C
:100F3000EE610000D0FF0FE0F7B5002840F08F8091
:100F4000484E3078830700F18B8002F01FFB02F0DF
:100F500001FD0A25FF20013D02F0E2FA15F0FF0530
:100F6000F8D12846294602F0B7FC0128044601D0F2
:100F7000002460E04FF47A7002F00EFD08204FF478
:100F8000D57102F0A9FC012835D1FF2002F0C8FA82
:100F900001AF78550135042DF7D19DF80630012BAE
:100FA000E6D19DF80730AA2BE2D102F0FFFC28B170
:100FB00002F0FCFC01460028DAD107E0A9204FF03E
:100FC000804102F089FC0028EFD1F1E73A2002F0DD
:100FD00083FC0028CCD10446FF2002F0A1FA38554A
:100FE0000134042CF8D19DF8043013F0400F0CBFED
:100FF00004240C241FE02946A92002F06DFC0128DE
:101000009ABF0224A925254602F0D0FC014660B112
:1010100002F0CCFC0028ABD110204FF4007102F09C
:101020005BFC002818BF002405E0284602F054FCB1
:101030000028E9D1ECE70C4B1C8002F08FFA34B1A8
:10104000337823F00103337002F094FC05E002F0E2
:10105000D1FA337843F001033370307800E0012097
:1010600003B0F0BD08000020240B002010B9024B93
:1010700018787047012070470800002038B50D46E9
:101080001C461146002833D193B31B4B1B78DA075B
:1010900030D41A4B1B881B0758BF4902012C0DD1B5
:1010A000112002F019FCE8B928464FF4007102F053
:1010B0006BFBD0F1010438BF002413E0122002F0D2
:1010C0000BFC78B928464FF4007102F05DFB28B1A3
:1010D000013C14F0FF0405F50075F3D10C2000214C
:1010E00002F0FAFB02F03AFA201C18BF012038BDCA
:1010F000042038BD032038BD08000020240B002048
:1011000070B50D4616461C46002840D1002B3ED037
:10111000224B1B78D8073CD459073CD4204B1B8862
:101120001A0758BF7602012C0DD11820314602F063
:10113000D3FB30BB2846FE2102F078FBD0F101043E
:1011400038BF00241DE013F0060F03D0972021467E
:1011500002F0C2FB1920314602F0BEFB88B92846D6
:10116000FC2102F063FB28B1013C14F0FF0405F5FB
:101170000075F4D10020FD2102F058FB002808BFC3
:10118000012402F0EBF9201C18BF012070BD0420DF
:1011900070BD032070BD022070BD00BF080000209C
:1011A000240B0020F0B5154685B0002840F0E38000
:1011B000734B1A78D20700F1E0800E2900F2D48038
:1011C000DFE801F008134B4FD2D2D2D210D29DA14A
:1011D000A3AFBF0002F0CAF908B90124C7E002F0CA
:1011E000BDF9C3E001221A70C0E00920002102F01D
:1011F00073FB04460028F0D16846102102F0C4FABF
:101200000028EAD09DF800309DF808209B09012BAA
:101210009DF8093004D103EB022301339B021AE04D
:101220009DF807109DF80A00890001EB92129DF8C5
:10123000061003F0030301F0030102EB81229DF885
:101240000510013201F00F0101EBD01101EB430356
:10125000073B02FA03F32B6089E04FF400732B8005
:1012600084E0484E318801F0040189B2D9B18D2063
:10127000002102F031FB0028AFD1FF2002F050F92D
:101280006846102102F080FA0028A6D03024FF2002
:10129000013C02F045F914F0FF04F8D19DF80A3042
:1012A00010221B09D5E7092002F016FB002894D173
:1012B0006846102102F068FA00288ED034889DF824
:1012C0000A2004F00204A4B29DF80B3064B19DF82A
:1012D0000D1002F03F02DB0903EB420389090133E1
:1012E00001398B402B6041E003F003015B0903EB04
:1012F000C103C2F38402013302FB0333ABE7214B8A
:101300001B882B7032E0092000E00A20002102F047
:10131000E3FA00287FF461AF2846102102F034FA86
:101320001DE03A20002102F0D7FA00287FF455AFE3
:101330000446FF2002F0F4F828550134042CF8D1BB
:1013400014E08D20002102F0C7FA00287FF445AF99
:10135000FF2002F0E5F82846402102F067FAD0F1BC
:10136000010438BF002402E0042400E0002402F05D
:10137000F5F8204602E0042000E0032005B0F0BDAF
:1013800008000020240B002010B500239CB2A242CC
:1013900003D0CC5CC4540133F8E710BD036930B509
:1013A00001F10902002B35D043690024185D202883
:1013B00008D0052804F1010408BFE520082C02F834
:1013C000010BF3D1187A20280DD010462E2400F8F6
:1013D000044BDD1D013215F8014F202C03D002F81B
:1013E000014B8242F7D1D87A0872987FDC7F0004E3
:1013F00040EA04601C7F20435C7F40EA04200860D0
:101400005C7E187E40EA04208880D87D9B7D43EA7C
:101410000023CB800023137030BD2DE9F041056B14
:1014200004468D420E4602D10020BDE8F0810379CA
:1014300013B9002EF8D01FE000F13408414640787F
:101440002A460123FFF75CFE10B10120BDE8F081C0
:10145000226A636A207113449D42EAD2E778012F21
:10146000E7D9236A60781D4441462A460123013F9B
:10147000FFF746FEFFB2F2E7607804F1340132462E
:101480000123FFF7FBFD0028DFD12663BDE8F081D3
:1014900010B504460A46407804F134010123FFF7F1
:1014A000EDFD80BB94F8323294F8332243EA0222F5
:1014B000174B12B29A4228D194F86C2094F86D30F0
:1014C000120442EA036294F86A301A4394F86B30CB
:1014D00042EA03220F4B22F07F429A4216D094F840
:1014E000880094F88920000440EA026094F886207D
:1014F000104394F8872040EA022020F07F40C01A71
:1015000018BF012010BD032010BD022010BD00BF78
:1015100055AAFFFF464154002DE9F04115460268E7
:101520001378303B9BB2092B05D854783A2C02D162
:101530000232026001E0B64B1B78002B40F056816E
:10154000B44B1C680C60002C00F05381237873B1FD
:101550006078FFF78BFDC60709D4002D00F04C81A1
:1015600010F0040F0CBF00200A20BDE8F08100201D
:1015700020706070FFF7E0FCC10700F1408115B1F9
:10158000420700F13F8120460021FFF781FF01283B
:1015900018D194F8F63113B90D20BDE8F08194F814
:1015A000FC6194F8FD31360446EA036694F8FA319A
:1015B00020461E4394F8FB3146EA03263146FFF7E6
:1015C00067FF00E00026032800F01F810028E3D118
:1015D00094F8402094F83F3043EA0223B3F5007FAB
:1015E000DAD194F84B0094F84A3053EA00200DD138
:1015F00094F85A0094F85B30000440EA036094F8D1
:101600005830184394F8593040EA032094F8445075
:1016100020626B1E012BE570BED894F84110A170BA
:101620000029B9D04B1E0B42B6D194F8453094F83E
:10163000462043EA022213072281ADD194F8487074
:1016400094F8473053EA07230DD194F8563094F8B4
:1016500057701B0443EA076394F854703B4394F8B3
:10166000557043EA072394F8438094F8427057EA90
:10167000082891D005FB00FC08EB12176744BB4219
:101680008AD3DB1BB3FBF1F3002B85D040F6F57159
:101690008B4206D94FF6F575AB428CBF0325022568
:1016A00000E001250233374406EB0801032DE36116
:1016B000E762616213D1002A7FF46EAF94F8622072
:1016C00094F86310120442EA016294F860109B00DF
:1016D0000A4394F8611042EA0122A26210E0002A53
:1016E0003FF45AAF022D4FEA430218BFD2186144AB
:1016F00018BF03F00103A1620CBF134603EB5203B2
:1017000003F2FF13B0EB532FFFF446AF4FF0FF335C
:101710002361032D4FF00003E3605AD1637194F805
:10172000652094F86430607843EA022232446261B2
:1017300004F134010123FFF7A1FC002849D194F8FA
:10174000323294F8332243EA0222334B12B29A42E5
:101750003FD194F8362094F83730120442EA0362FD
:1017600094F834301A4394F8353042EA03222B4B74
:101770009A422ED194F81A2294F81B32120442EAAB
:10178000036294F818321A4394F8193242EA032299
:10179000234B9A421DD194F8223294F823221B0441
:1017A00043EA026394F82022134394F8212243EA87
:1017B0000223E36094F81E3294F81F221B0443EACC
:1017C000026394F81C22134394F81D2243EA022377
:1017D0002361144A00201388257001339BB22071C5
:1017E0001380E3802063A061BDE8F0810B20BDE899
:1017F000F0810C20BDE8F0812846BDE8F08103208F
:10180000BDE8F0810A20BDE8F0810120BDE8F0814B
:10181000260B00202C0B002055AAFFFF52526141DD
:1018200072724161280B002008B568B103785BB182
:10183000C3888B4208D14078FFF718FC10F0010FE5
:101840000CBF0020032008BD092008BD38B50021C9
:101850000446FFF7E2FD0346002B50D12278032A0D
:1018600045D16279002A42D0236304F13401002576
:10187000CD540133B3F5007FF9D1552384F83232CA
:10188000AA2384F83332522384F8343084F8353074
:10189000612384F8363084F81B322369412284F8AE
:1018A000372084F81A22C3F3072284F81C3284F804
:1018B0001D221A0C1B0E84F81F32E36884F81E22C6
:1018C000C3F30722722084F8203284F821221A0CF4
:1018D0001B0E84F8180284F8190284F8222284F876
:1018E0002332607862690123FFF70AFC65710021E9
:1018F00060780A46FFF756FC003018BF012038BD5B
:10190000C3690239023B99423DBF8278C36A02FB38
:101910000130002070470129F8B504460D4661D911
:10192000C36999425ED20378022B2AD0032B3AD0A6
:10193000012B54D18EB206EB5606416AB6B201EBCA
:101940005621FFF76AFD002849D1C6F30803616AF2
:101950000136B6B22344204601EB562193F8347089
:10196000FFF75BFD00283AD1C6F30806344494F82B
:101970003400EB0747EA00204CBF0009C0F30B001E
:10198000F8BD416A01EB1521FFF747FD38BB6D003B
:1019900005F4FF7563192C4493F8343094F835003E
:1019A00043EA0020F8BD416A01EBD511FFF735FD90
:1019B000A8B9AD0005F4FE75631993F8370093F8E4
:1019C000362034335B78000640EA02402C4440EA7B
:1019D000032094F83430184320F07040F8BD4FF0E5
:1019E000FF30F8BD0120F8BD70B504460D46E1801A
:1019F0008168012901D1022070BD0368DA69914232
:101A0000F9D271B91A78032A01D1996A49B9002229
:101A1000E2601A89AA42EED99B6A03EB151323618F
:101A200019E09E783601B5420ED32068FFF773FFA8
:101A3000431C014618D00128DDD92368DB69984290
:101A4000D9D2AD1BADB2EEE7E1602068FFF758FFD9
:101A500000EB15102061236805F00F0503EB45131B
:101A600034336361002070BD012070BD0129F8B5D9
:101A700004460D46164673D9C369994270D203785D
:101A8000022B3BD0032B4AD0012B65D18FB207EB41
:101A90005707416ABFB201EB5721FFF7BEFC002890
:101AA0005BD1C7F3080315F001052344F2B206D059
:101AB00093F8341001F00F0141EA0212D2B201375B
:101AC000616A83F83420BFB201232371204601EB01
:101AD0005721FFF7A2FC00283FD1C7F3080727448E
:101AE00015B1C6F3071606E097F83430C6F303269F
:101AF00023F00F031E4387F834602EE0416A01EBA8
:101B00001521FFF78AFC40BB6D0005F4FF756319D2
:101B100083F83460C6F3072683F835601DE0416A18
:101B200001EBD511FFF779FCB8B9AD0005F4FE75EE
:101B3000631993F83720120602F070421643C6F379
:101B4000072283F8346083F83520320C360E83F890
:101B5000362083F8376000E0022001232371F8BDAE
:101B60000220F8BDF8B505460F4631B9C6686EB11A
:101B7000C3699E4228BF012609E0FFF7CCFE012879
:101B80003BD9EB69984239D33E4600E00126344602
:101B9000EB6901349C4204D3012E01D80020F8BD2A
:101BA000022428462146FFF7B6FE48B1411C02D167
:101BB0004FF0FF30F8BD01281FD0B442E8D1EDE767
:101BC000284621466FF07042FFF750FF98B947B999
:101BD0002B69EC605A1C0CD0013B2B6101236B710B
:101BE00007E0284639462246FFF740FF0028EFD09D
:101BF00001E02046F8BD0128DAD00120F8BD2DE92A
:101C0000F843C68804460136B6B20F4616B904201A
:101C1000BDE8F8830369002BF9D016F00F085CD1FA
:101C2000C16801330361006819B90389B342EED971
:101C300053E08278013A12EA16124ED1FFF76BFE9A
:101C40000128054602D80220BDE8F883421C02D1D3
:101C50000120BDE8F8832068C3699D4237D3002F77
:101C6000D5D0E168FFF77EFF054600283ED0012869
:101C7000E9D0431CECD020680021FFF7CEFB002800
:101C8000E6D12368343300271F540130B0F5007FBC
:101C9000F9D1D4F8009029464846FFF731FEC9F83B
:101CA00030002368FAB2997891420DD901221A7155
:101CB00020680021FFF7B1FB01370028C8D1236855
:101CC0001A6B01321A63ECE7196B8A1A1A63E56022
:101CD00020682946FFF714FE20612368E68003EBA5
:101CE0004813343363610020BDE8F8830720BDE862
:101CF000F88300002DE9F0410B7804462F2B0D46A8
:101D000001D05C2B02D10135002301E003689B69FF
:101D1000A3602B781F2B35D820460021FFF764FEE7
:101D200000236361BDE8F08100228B5C501C2E2BE8
:101D300085B23ED02F2B41D1202B0D448CBF2023C8
:101D40002423F37220460021FFF74EFE30B92068AD
:101D50002169FFF762FB002800F09380A369DB7A1A
:101D6000002800F0A780042840F0C28013F0200F64
:101D700003F0040300F0A3800022A2606261002B44
:101D800040F09A802B7829462F2B05F10105F9D0D8
:101D90005C2BF7D0A66900232022F25401330B2BD1
:101DA000FAD10B782E2BBFD000200346082702461D
:101DB00016E0022A62D0B3540246B6E75C2BBBD0D1
:101DC000202B5BD8B8E72F2B28D05C2B26D02E2BCE
:101DD0000CD1082F52D192003846D2B20B272B4695
:101DE0005D1CCB5CADB2202BEDD815E0B84245D2DE
:101DF00013F0800F06D0DFF8FCC0803B1CF80330E6
:101E000042F00302DFF8F08018F801CFBCF1000FB8
:101E10001DD09C45F8D131E0042300E0002368B3D5
:101E200030780D44E52804BF05203070082F04BF2A
:101E30009200D2B202F00300012802F00C0208BFA7
:101E400043F01003042A08BF43F0080379E7A3F125
:101E5000410CBCF1190F02D842F0020208E0A3F1D4
:101E6000610CBCF1190F03D8203B42F00102DBB238
:101E700000F1010C33541FFA8CF0B0E70620BDE8E6
:101E8000F081626913789BB1D37A1E070BD4A769DE
:101E90000346D15C0133FE1816F8016C8E4202D164
:101EA0000B2BF6D15AE720460021FFF7A8FE4DE79D
:101EB000042053E7590708D50020BDE8F081002B26
:101EC00014BF04200520BDE8F0816369DA7AD206E8
:101ED0000BD5597D1A7D42EA0122D97E9B7E43EAC9
:101EE000012343EA0243A3604CE70520BDE8F081EB
:101EF000BDE8F081166200000662000038B50021DE
:101F00000446FFF771FD054618BB20682169FFF7FD
:101F100084FA0546E8B963691B78E52B05D023B13F
:101F200020460121FFF76BFEEDE720682169FFF7EE
:101F300074FA054668B960692B460022C254013321
:101F4000202BFAD10B22A169FFF71EFA2368012288
:101F50001A71284638BD10B504230446216991B191
:101F60002068FFF75AFAA8B963691A788AB1E52A96
:101F700002D0DB7A1B070FD520460021FFF73FFE7A
:101F800040B90346EAE7184633B1002222611846F9
:101F900010BD04200346F8E710BD012970B50446C2
:101FA0000D4622D9C36999421FD2E3699D4205D2E9
:101FB00020462946FFF7AFFC064608B9002070BD51
:101FC000012812D0411C0ED0204629460022FFF7DE
:101FD0004DFD58B923695A1C03D0013323610123F5
:101FE00063713546E1E7012070BD022070BD00003D
:101FF00038B50C4680B9094A1368154603B1187004
:1020000014B10023237004E0607808212246FFF712
:10201000C9F82C60002038BD0B2038BD2C0B0020E7
:102020002DE9F0418CB0002305460CA840F82C1D8A
:102030002B60174602F01F0605A902F01E02FFF7EB
:102040006BFA02AB0B9318B905A80199FFF752FE82
:102050000A9C10B9002C08BF062017F01C0F44D0B2
:1020600048B1042802D105A8FFF748FF46F008064A
:102070000A9C30B16DE0E37A13F0110F68D17B0751
:1020800062D437073AD501F09BFC227D677DC0F30F
:102090000723E17E42EA0727A27EA073E373030CC5
:1020A000000E23746074002342EA01220598E37253
:1020B00023776377A377E377A376E3762375637556
:1020C00052EA07474FF00103037117D03946D0F8A1
:1020D0003080FFF762FF00283BD10598013FC760C1
:1020E0004146FFF79AF948B133E0002831D1E37A4D
:1020F000D8062BD4B90701D5DA0729D43307059BB5
:1021000048BF46F020061A6BAE71EA612C62227D50
:10211000617DE07E42EA0121A27E42EA002242EA9B
:1021200001422A61A27FE17F120442EA0162217F1B
:1021300000200A43617F2B60DB8842EA0122EA60CB
:10214000A860A861AB8004E0082002E0042000E061
:1021500007200CB0BDE8F0812DE9F84F9A46002326
:102160000446AAF800300F460068A1881546FFF71C
:102170005BFB002840F0AC80A379180600F1A48036
:10218000D90740F1A480E268A368D31A9D4243D9DD
:102190009DB241E0A368C3F30802002A40F08180A9
:1021A000206890F802B00BF1FF3B0BEA532B1BF0B9
:1021B000FF0B34D0D4F8009061694846FFF7A0FBCC
:1021C000002838D05FEA552800EB0B0645D099F877
:1021D00002300BEB08029A42C4BFCBEB03081FFA94
:1021E00088F85FFA88F399F8010039463246FEF71D
:1021F00045FFA37900284DD15B0621D44FEA48263C
:10220000B6B2A368AD1B3344A360BAF800303744BC
:102210003344AAF80030ADB2002DBBD151E00BB968
:10222000206902E06169FFF776FB012803D9421CAF
:102230002FD06061BEE7A37963F07F03A37143E011
:10224000A369981B4045D9D207EB402004F1240133
:102250004FF40072FFF798F8D0E7A269B2421FD09E
:10226000A37904F1240813F0400F0AD0012399F850
:1022700001004146FEF744FFA37958B923F040031B
:10228000A37123684146587832460123FEF7F6FED3
:1022900030B1A37963F07F03A3710120BDE8F88F0B
:1022A000A661A1683846C1F30801C1F50076B6B24F
:1022B000B54238BF2E46214424313246FFF764F838
:1022C0009FE72846BDE8F88F0220BDE8F88F072079
:1022D000BDE8F88F2DE9F84F994600230446A9F888
:1022E00000300F460068A1881546FFF79DFA0028C8
:1022F00040F0BF80A37918065CD4990740F1B880FC
:10230000E368DD4228BF002536E05FEA552800EB90
:102310000A067AD09BF802300AEB08029A42C4BF40
:10232000CAEB03081FFA88F89BF8010039463246C9
:102330005FFA88F3FEF7E4FE002876D1A369991BC3
:1023400041450BD204F1240007EB41214FF4007208
:10235000FFF71AF8A37923F04003A3714FEA482648
:10236000B6B2A368AD1B3344A360B9F8003037445C
:102370003344A9F80030ADB225B3A368C3F3080213
:10238000002A5AD1206890F802A00AF1FF3A0AEA1E
:10239000532A1AF0FF0A1ED17BB9216921B9FFF730
:1023A000E1FB0146206169B10129A37910D163F0F5
:1023B0007F03A3710220BDE8F88F6169FFF7D2FBAC
:1023C0000146F0E7A368E26893424AD9E36048E037
:1023D0004A1C2BD06161A3795B060CD5214651F8CC
:1023E000243BA26958780123FEF78AFEA379E8B955
:1023F00023F04003A371D4F800B061695846FFF799
:102400007FFA002881D1A379D1E7A369B34213D021
:10241000A268E3689A420FD29BF8010004F12401FC
:1024200032460123FEF72AFE30B1A37963F07F0321
:10243000A3710120BDE8F88FA661A0683946C0F3FA
:102440000800C0F50076B6B2B54238BF2E4620442B
:1024500024303246FEF798FFA37943F04003A3717E
:102460007FE7A379002043F02003A371BDE8F88F34
:102470000720BDE8F88F38B50446A1880068FFF74B
:10248000D3F900284AD1A37903F0200202F0FF001B
:10249000002A43D05B060DD5214651F8243BA269A2
:1024A00058780123FEF72CFE002836D1A37923F0BB
:1024B0004003A3712068E169FEF7AFFF70BB256A96
:1024C000EB7A43F02003EB72E3682B77A3891B0AB6
:1024D0006B77E389AB77E37BEB772369AB76238A72
:1024E0001B0AEB76638A2B75638A1B0A6B7501F0F6
:1024F00067FAC0F30723A875EB75030C000E2B7663
:102500006876A379012223F02003A37123681A714E
:102510002068BDE83840FFF799B9012038BD10B5F3
:102520000446FFF7A8FF00B9206010BD70B504464F
:102530000D460068A188FFF777F9002840F09380E6
:10254000A279160600F18C80E3689D4203D912F04F
:10255000020F08BF1D460022A368A2600DB9002526
:102560004DE02068867876026BB1013B691EB1FBB5
:10257000F6F1B3FBF6F2914205D372421340A36029
:10258000ED1A61690AE0216939B9FFF7EBFA012810
:1025900001462DD0013052D0216161610029DED089
:1025A000B5421AD9A37920689A0704D5FFF7DAFA59
:1025B000014618B910E0FFF7AEF901464B1C3ED0BA
:1025C000012915D92368DB69994211D2A368616199
:1025D0003344A360AD1BE3E73546A3682B44A360F7
:1025E000C5F30803002BBAD02068FFF789F920B99A
:1025F000A37963F07F03A37132E000EB5525A36854
:10260000C3F3080313B3A26995421FD0A37904F161
:10261000240613F0400F0AD023683146587801236E
:10262000FEF76EFDA37958B923F04003A371236828
:10263000314658782A460123FEF720FD28B1A379B8
:1026400063F07F03A371012070BDA561A368E268F8
:10265000934207D9E360A37943F02003A37101E01B
:10266000022070BD002070BD10B586B0044606A8DB
:1026700040F8141D00222146FEF74EFF10BB03ABAD
:10268000A36120460199FFF735FBB0B963696BB1CF
:10269000DA7AD20615D5597D1A7D42EA0122D97E11
:1026A0009B7E43EA012343EA0243A360236820465A
:1026B000DB880021A380FFF797F9042808BF0520D5
:1026C00000E0052006B010BD7FB504460E46006848
:1026D000A188FFF7A9F80546E8B926B9204629469A
:1026E000FFF782F916E001ABA3612046FFF733FC48
:1026F000042801D1256100E060B920463146FEF78B
:102700004DFE20460021FFF77AFA042802D100236B
:10271000236100E00546284604B070BD2DE9F74F5F
:1027200002AB43F8040D88461646114618460022AF
:10273000FEF7F2FE0446002861D13368DF691A69AA
:10274000B91E8A4202D8C8F8002058E093F80090D9
:10275000B9F1010F11D10227054630683946FFF75C
:10276000DAF8431C3CD001283CD000B9013533686D
:102770000137DB699F42F0D337E0596A02460346CE
:10278000054652B9306801F1010AFEF746FE58BB12
:102790003368514634334FF40072B9F1020F587860
:1027A00093F800C006D15CEA002C08BF0135023363
:1027B000023A11E093F802A093F803B04FEA0A4AF4
:1027C0004AEA0B6A4AEA0C0C4CEA002020F07040FE
:1027D00000B901350433043A013F92B2D1D104E08B
:1027E000012402E0022400E004463368B9F1030F3B
:1027F00008BF01221D6108BF5A71C8F80050204669
:1028000003B0BDE8F08F000010B5084C2269E36901
:1028100013409B0709D5A168002001F5804121F0F4
:102820007F41FEF71DFB0223A36110BD000008409D
:102830000C4B421E9A4210B5044604D90A484FF484
:102840002771FDF735FD094BE4034FF47A7259689F
:10285000B4FBF2F45A68521A22F07F42A242F9D332
:1028600010BD00BFFEFF0100A6620000000008408E
:10287000F0B5AA4B95B01B681B0E10D1A84B1A6877
:1028800022F070021A60A3F57F532C3B1A6822F0E5
:1028900060421A601A6862F060621A6001E0032BFD
:1028A0000BD8A04B1A6822F4FC521A609E4A0023EF
:1028B000136053609361136293630AA8FEF722FBCF
:1028C0009DF82830012B0FD19DF829302BB9964B5C
:1028D0001A6842F002021A6001E0012B04D8934BFF
:1028E0001A6842F001021A60914B1A68914B9A42A1
:1028F00020D88E4B1A6842F490421A608E4A1068B3
:1029000011681568146805F4FE4204F07F04224340
:1029100001F07F0142EA0141C0F30620874A41EA03
:1029200000611160864A1168864A11601A6822F4B3
:1029300090421A6001210A460020FDF7F1FE82480C
:102940000221FDF71DFF81480221FDF719FF804894
:102950000121FDF7E7FD7E480121FDF731FD7D48AE
:102960000121FDF7DFFD7C480121FDF7DBFD7B4800
:102970000121FDF7D7FD79480121FDF7D3FD0020A6
:10298000022104220123FEF7D9F800200346032187
:102990000122FEF7D3F80F21012200230220FEF7C7
:1029A000CDF8002514A800F84C5D8DF805508DF881
:1029B0000650FEF77FFA6A4B0120DA69694C42F053
:1029C0000202DA61FEF76CFA674B4FF08072C3F8CF
:1029D00080214FF416501A6000F096FA00F068F962
:1029E000624800F015FB624800F012FB614800F0FD
:1029F0000FFB00F0CFFB604800F0D6FB5C495F485E
:102A0000A1F10A03A1F11A0200F0CEFB5C485D4976
:102A100000F0CAFB5C495B4A0AA801F097F85B4BDF
:102A20005B485A6C5B491B6C00F0BEFB00F076FD06
:102A3000256000F023FE002800F0E6805648574944
:102A400000F092FC002800F0DC8053480AA900F056
:102A50008BFC002849D0524E02AB30687168378930
:102A600003C3062229460DF112001F8001F024F84D
:102A70003068716806AB03C3062229460DF12200B7
:102A80001F8001F019F8474800F08EFB00F028F98C
:102A9000014618B102A8263101F09CF90AA800F0FD
:102AA00033F9054600F01CF9014618B106A8263195
:102AB00001F090F9062D13D8DFE805F00412121288
:102AC0000A0C0E00384802A906AA00F06DFB10E0BF
:102AD000364802E0364800E0364800F065FB08E082
:102AE0003548294600F060FB03E0344800F05CFB09
:102AF0000325334800F058FB3248014600F07EFBC6
:102B000008B100F0ADFB0026002D5DD1013606F0C6
:102B1000010323603220FFF78BFE6BE0FC81E00FA6
:102B20000CA00C4020600C4040800C4044800C40C5
:102B3000F081E00FFFB98A4CB481E00F34200040EF
:102B4000C881E00F2C400040020006000300120084
:102B500030040800002304001081020000C20200BB
:102B60000000084088010C4200E100E0B062000073
:102B7000CC670000C3620000CC620000F36200007A
:102B80000A630000176300001C630000B081E00FBF
:102B9000236300003F6300004D6300004F630000AB
:102BA00096620000556300008B630000BD63000067
:102BB000DE6300000164000024640000466400003D
:102BC000716400009C640000002626604FF4487089
:102BD000FFF72EFEAE420BDA01232360C820FFF779
:102BE00027FE00232360C820FFF722FE0136F1E70D
:102BF00025EAE57600F042FD00F092FB002883D044
:102C000002E0274800F004FA264800F001FA002309
:102C1000236000F071F90028FBD000F0D5F94FF4E3
:102C200000410A6848F20403551C1B6813D0581C65
:102C300011D002F16040B0F5804F0ED8A3F50040EE
:102C4000B0F5C03F09D872B61748816082F3088892
:102C50009847092502E0012500E002254FF448705D
:102C6000FFF7E6FD002601232360C820FFF7E0FD03
:102C700000232360C8200136FFF7DAFDAE42F2DB05
:102C80004FF47A70FFF7D4FDBFF34F8F064A074B1E
:102C9000D16801F4E0610B43D360BFF34F8FFEE7CF
:102CA000A7640000C364000000ED00E00400FA0522
:102CB0007047000072B6044B1A68511C1CBF0132E9
:102CC0001A601868704700BF200B0020034B18687B
:102CD00018B10138186000B962B67047200B0020A7
:102CE00010B54FF400442046054900F055FF28B1C7
:102CF000044B01349C42F6D1002010BD204610BD8B
:102D000078650000F07F02002DE9F743054618B909
:102D100036485D21FDF7CCFA354C29462046012284
:102D2000FFF77EF9014630B1324800F051FA002336
:102D30002360042056E0FEF7CFF8D4F80C904FF44F
:102D40000044A4F500434B4545D2294D2A49284665
:102D50004FF400720DF10603FFF7FEF9074638B194
:102D60002648394600F034FA00232B60042433E06F
:102D7000FFF7A0FF204603F0D7F90646FFF7A6FFAE
:102D80003EB121461E4872B200F022FA05242F609F
:102D900022E0DFF874800123C8F80030FFF78AFFD3
:102DA000BDF806201449033222F00302204603F046
:102DB000B3F90746FFF78AFF04F500733FB12146D8
:102DC00010487AB200F004FA06242E6004E0C8F835
:102DD00000701C46B5E70024FEF78AF80448FFF7A8
:102DE0009EFB204603B0BDE8F08300BF8365000072
:102DF000300B002096650000540D0020C0650000D7
:102E0000EA6500001E66000088010C42034B18684A
:102E100018B10138186000B962B67047200B002065
:102E200013B572B6224B1A68541C224C1CBF0132D7
:102E30001A60237823B102B0BDE81040FFF7E6BF67
:102E400001232370FFF7E2FF1B4B1C4A19881388EC
:102E500089B2CB1A9BB20BB9237026E0180405D5B2
:102E600013884FF48061C3F580639BB21088144AC5
:102E7000184480B21080108880B2B0F5806F04D3FF
:102E80001088A0F5806080B210800E4A01201144A5
:102E90000D4A1BB211610D4A013B106000220193E3
:102EA000009201461346FDF757FD02B010BD00BF6A
:102EB000200B0020540F0020581300205A1300202C
:102EC00056130020540F002000290020340008432E
:102ED000054A00231360054A1188054A89B211800A
:102EE000044A1370FFF79CBF3400084356130020B8
:102EF0005A130020540F0020024B187880F0010074
:102F0000704700BF540F002038B5012105461E4808
:102F1000FDF708FB1D4C1E480121FDF703FB0121B5
:102F20001C48FDF7FFFA2046FDF7D2FE1A4920465D
:102F30008D60FDF79BFE022504210A46656503208E
:102F40000123FDF7FBFD154B154A0024DA601C61D7
:102F50001448FDF7B9FD01201349FDF72BFD0120B1
:102F6000124A0146FDF75CFD114A124B5A61124AA2
:102F700041F20C03D550114B01221A60104B1C80FA
:102F8000104B1C8038BD00BF0013040000400840F7
:102F900000C202004005140014000020042A002092
:102FA000D12E00000C000020240000203000002062
:102FB000284008400029002000200C4000E100E0EB
:102FC0005A130020581300200C4A10B541F20C038C
:102FD0000024D4500A4B0122C3F88020FDF74EFD97
:102FE0000848FDF775FE21460748FDF79BFA214684
:102FF0000648BDE81040FDF795BA00BF00200C4020
:1030000000E100E000400840001304004005140007
:1030100030B500210278002A2ED0194B194C1D889A
:1030200024882D1BADB2ACB214F4004F1CBF05F5C3
:103030008064A4B224B240F2FE35AC421CDC124CD7
:103040002578124C45B10A2A06D129B91A880D21D2
:1030500092B2A154012104E01988013089B262546E
:1030600000211A88013292B2B2F5806F1A80D1D352
:10307000034B00221A80CDE7BDE83040FFF7D0BEF9
:10308000581300205A13002035000020550F00204F
:1030900072B6044B1A68511C1CBF01321A601868C2
:1030A000704700BF200B0020034B186818B101388F
:1030B000186000B962B67047200B00202DE9F04778
:1030C0002D4D90462A688946C2F580532B49652BC1
:1030D000A8BF002309680746D018411A48BF01F568
:1030E0008051C1F57F610F319AB0632901AE0CDCCC
:1030F000234B24491A68304601321A6000F026FD3D
:103100003046FFF785FF344607E0002B1E4B02DDFB
:103110000021995429602C681C4404F1010A57B11C
:103120003B7843B13946504600F054FE384600F033
:10313000AFFE471C00E001274246E019494601F076
:103140000FFD0744E019114900F044FE03375046D3
:10315000FFF75EFF642F04DD0D484FF4C071FDF7EB
:10316000A7F8B44205D02B68074AB91E1F44D154B2
:103170002F601AB0BDE8F087881500208C1500205C
:10318000841500205266000090150020876600001C
:103190008A660000024A00231360024A13607047E7
:1031A000881500208C1500200FB437B506AC54F8F4
:1031B000045BFFF76DFF2946224600200194FFF7CC
:1031C0007DFFFFF771FF03B0BDE8304004B07047EA
:1031D0000FB437B506AC54F8045BFFF759FF294626
:1031E000224605480194FFF769FFFFF75DFF03B032
:1031F000BDE8304004B070479F66000038B50C460B
:10320000014608B914B305E0114800F0ADF80028F4
:10321000F8D004460F4D214628461322FEF700FF42
:103220002C46014628B9E9682846FFF77FF9014690
:1032300028B10948FFF7CCFF0023236002E0074BC9
:1032400002221A6000F0D6F9012038BD204638BDB0
:103250004D63000060130020A66600005C13002090
:1032600037B5274800F064F8002846D000F08EF902
:103270000020FDF761FE58B1224A1368013B002B84
:10328000136038DB204826E02B68023423442B608F
:103290001E4B1F4A19681268914229D01D4A545C7E
:1032A00011460CB91C6014781B6815480133194489
:1032B00022460DF10603FFF70DF8144D014668B9DB
:1032C000BDF80630A342DFDA0E4A1368013B002B3B
:1032D000136010DB1048FFF77BFF0CE0094A13680E
:1032E000013B002B136006DB0C48FFF771FF02E087
:1032F0000348FFF7C0F800F07DF903B030BD00BF10
:10330000601300205C130020C16600008C150020B3
:103310008815002090150020EF660000D766000099
:10332000024B1878831E5842584170479825002058
:1033300028B1006818B10078003018BF012070472C
:1033400007B50848694601AAFFF7E8F930B9019BBB
:103350009A78009B58085043800A00E0002003B090
:103360005DF804FB4D630000F0B50D468FB00446D8
:1033700020B93C484FF4B971FCF79AFF25B9394898
:1033800040F27311FCF794FF07A82146FFF76CF990
:1033900050B1002064E09DF80D30002BF9D09DF86D
:1033A0000C4014F01C040FD007A801A9FFF78CF9FA
:1033B0000028F0D0EDE763B12A5D2A2A09D09342B4
:1033C00007D10134082C04D001AB23445B7A2E2BA7
:1033D000F1D12B5D2A2B0AD1661C082C08D001AB39
:1033E00023445B7A2E2B03D013B10134F5E7264634
:1033F0000EAB234413F82B2CAB5DAF199342D3D102
:1034000033B919480DF10D0100F0E4FC164827E02E
:103410002E2B04D013484FF4D571FCF749FF3B78AD
:103420002E2BB6D1731CA21B01A90A441A44527A4E
:1034300032B1E95C2A2903D08A4201D10133F2E793
:10344000EC18EB5C2A2BDCD09A42ADD122B10548B6
:1034500040F2BF11FCF72CFF2378002BD1D098E766
:103460000FB0F0BD18670000D527002030B5234D00
:1034700087B001AC0FCD0FC42B6821480121236018
:10348000FDF750F81F480121FDF74CF81E4B0C22A8
:103490001E4D1A601E4B0124284601A903938DF886
:1034A0001240FDF791FC0B236B651A4B0422187830
:1034B000194B19680023FDF741FB02200146042245
:1034C0000023FDF73BFB0220024623460321FDF7C4
:1034D00035FB2346022005210422FDF72FFB0421A2
:1034E0000A4602200023FDF729FB0220062122467E
:1034F0000023FDF723FB07B030BD00BF04670000C9
:103500000022020000C202009425002000C80040F2
:10351000A08601003600002090250020FFF7A6BFFE
:10352000044B01461A680AB1013A1A600248FDF7D5
:1035300083BC00BF9C25002000C80040064B10B58E
:103540001B684FF4FA745C43FF20FFF7E9FFFF2884
:1035500001D0013CF8D110BD94250020024B20225F
:103560009A65FF20FFF7DCBF0060004008B5064BFE
:103570002022DA65FFF7E2FFFF2803D0FFF7EEFF16
:10358000002008BD012008BD00600040164A10B5AB
:103590001268012404FA02F2144B24211B78144807
:1035A0004B4303F1804303F5C0431A612146FCF706
:1035B000B9FF0220014604220023FDF7BFFA0220D2
:1035C000024623460321FDF7B9FA234602200521CE
:1035D0000422FDF7B3FABDE81040042102200A4698
:1035E0000023FDF7ABBA00BF902500203600002075
:1035F0000022020008B5FFF7B9FFFFF7AFFFFFF7A2
:10360000B5FFFFF7ABFF14480021FCF78BFF02204A
:10361000002201461346FDF791FA002213460220CC
:103620000321FDF78BFA0022134602200521FDF746
:1036300085FA0022134604210220FDF77FFA074A8B
:1036400001211268064B01FA02F21B78242159432A
:10365000044B5A5008BD00BF0022020090250020F4
:10366000360000201460004008B5FFF7C3FFBDE836
:1036700008400148FDF77EBB00C8004070B50C2132
:10368000042201230220FDF759FA334C334A2378F0
:10369000334E11683370154609B102222270227828
:1036A000052A41D8DFE802F0111503273E3E022B20
:1036B0000BD02C48FFF778FD00202B4B0821024649
:1036C0001870FDF76FFDFFF7CFFF2B6853BB012389
:1036D0002370227833789A4204D02448FFF764FD9F
:1036E000FFF7C4FE0020FDF727FCD8B903232048CC
:1036F0002370FFF759FD00201B49FEF779FC60B9E4
:1037000004231C482370FFF74FFDFFF719FE014605
:1037100088B11948FFF748FD0DE0052317482370CD
:10372000FFF756FD002507E01548F4210025FCF7BA
:10373000BFFD257000E00125227833789A4202D03F
:10374000104B01221A70002202200C211346FDF7B3
:10375000F5F9284670BD00BF98250020980C0C4252
:10376000D42700202D670000A02500203D67000021
:103770004E670000626700007E67000091670000EE
:1037800018670000002A0020F8B5254B64241B6848
:1037900006465C430D46FF20FFF7C2FEFF2802D11C
:1037A000013CF8D139E0FE2837D11E4BAF1C5C68D4
:1037B00018685A6822F00F0242F00D025A601A6827
:1037C00042F080521A604FF44062DA60164A116883
:1037D000B94226BF0239C5EB0101002111604FF645
:1037E000FF72DA6300230F4A4FF6FF71D16311694C
:1037F0000906FCD50B4AF118526AF2540233C2F39F
:1038000007229D424A70EED1064B1A691206FBD57B
:103810005A6A5C6018600120F8BD0020F8BD00BF46
:103820009425002000C800409C25002070B5044667
:103830000D46FFF783FEFF2846D12846FFF770FEAE
:10384000FD2D43D0224B40F20125586819685A6873
:1038500022F00F0242F00D025A601A6842F08052C4
:103860001A604FF44062DA601A4B1A68AA428CBFA1
:10387000A2F2022200221A600023E2185578E25CCC
:1038800042EA0525124A16697606FBD50233B3F5DE
:10389000007FD563F1D113695C06FCD50C4B4FF664
:1038A000FF72DA630A4B1A699206FBD54FF4406245
:1038B000DA6058601960FF20FFF732FE00F01F0049
:1038C000431F5842584170BD002070BD012070BD9B
:1038D00000C800409C250020020638B504460D466D
:1038E00007D537200021FFF7F7FF012830D804F073
:1038F0007F04FFF733FEFFF739FE40B344F040008A
:10390000FFF70EFE280EFFF70BFEC5F30740FFF78B
:1039100007FEC5F30720FFF703FEE8B2FFF700FE3E
:1039200024B1082C0CBF8720012000E09520FFF770
:10393000F7FD0C2C02D1FF20FFF7F2FD0A24FF2037
:10394000FFF7EEFD030603D5013CF8D138BDFF209B
:1039500038BD000008B5044A04480021FDF7DEF92F
:10396000034B0C221A6008BDA086010000C800406D
:103970009425002008B5054A05480021FDF7CEF939
:10398000044B4FF47A721A6008BD00BF00127A002F
:1039900000C8004094250020024B034A1B6858438E
:1039A00010607047942500209C250020034B186868
:1039B000D0F1010038BF0020704700BF9C250020D7
:1039C00000207047074880470749084A084B9B1A60
:1039D00040F30580043BC858D0503FF7FBAF054883
:1039E000004700009D020000406800000000002029
:1039F000040A002055010000FEE7FEE7FEE7FEE7AF
:103A0000FEE7FEE7FEE7FEE7FEE7FEE7FEE7FEE78E
:103A1000FEE7FEE7FEE7FEE7FEE7FEE7FEE7FEE77E
:103A2000FEE7FEE7FEE7FEE7FEE7FEE7FEE7FEE76E
:103A3000FEE7FEE7FEE7FEE7FEE7FEE7FEE7FEE75E
:103A4000FEE7FEE7FEE7FEE708B50021044601F0C9
:103A50009DF8044B1868C36B03B19847204602F0E9
:103A60006BF800BFE067000070B50F4E0F4D761B7E
:103A7000B61007D0043D0024013455F8043F9847A0
:103A8000A642F9D10A4E0B4D02F038FB761BB61058
:103A900008D0043D0024013455F8043F9847A6425D
:103AA000F9D170BD70BD00BFF8090020F8090020F1
:103AB000000A0020F8090020F0B4840743D0541E07
:103AC000002A3ED0CDB2034603E0621E002C38D05F
:103AD000144603F8015B9A07F7D1032C2AD9CDB21B
:103AE00045EA05250F2C45EA054515D9A4F110072F
:103AF0003F0903F1100606EB07161A4615605560DC
:103B00009560D5601032B242F8D104F00F0401374D
:103B1000032C03EB07130DD91E462246043A032A51
:103B200046F8045BFAD8221F22F003020432134441
:103B300004F003042CB1C9B21C4403F8011BA342D6
:103B4000FBD1F0BC704714460346C6E70EB4F0B58F
:103B50009CB021AC54F8042B0E49064623464FF482
:103B6000027E6FF0004508684FF6FF7702A90296C3
:103B700006960194ADF814E004950795ADF816701B
:103B800000F036FA029B00221A701CB0BDE8F0402B
:103B900003B070476004002040EA010C1CF0070FDE
:103BA00027D1BDF1100DCDE90245CDE900676FF0D9
:103BB00000064FF0000700BFF0E80223F1E80245DD
:103BC000A242A2F1013C2CEA020C0CF0803C08BF9E
:103BD000BCF1000F40F0E580AB42A3F1013C2CEAC0
:103BE000030C0CF0803C08BFBCF1000F40F0D68005
:103BF000E2E710F0030C21D020F0030050F8042B72
:103C00005FEACC7C08D00FD211F801CB5FFA92F3B7
:103C1000B3EB0C0C10D17BB111F801CB5FFAA2F31E
:103C2000B3EB0C0C08D13BB111F801CB5FFAB2F346
:103C3000B3EB0C0C00D10BB960467047BDF1100D11
:103C4000CDE90245CDE900676FF000064FF00007AF
:103C500011F0030C33D110F0040F0FD050F8042BE7
:103C600051F8044BA242A2F1013C2CEA020C0CF0E8
:103C7000803C08BFBCF1000F40F0938011F0040FAE
:103C800099D051F8045B00BFF0E80223AA42A2F1E8
:103C9000013C2CEA020C0CF0803C08BFBCF1000F88
:103CA00079D1F1E80245A342A3F1013C2CEA030CCF
:103CB0000CF0803C08BFBCF1000F69D1E4E721F0B3
:103CC0000301BCF1020F20D03FDA51F8045B00BFC2
:103CD00050F8043B4FEA1525A3F1013C2CEA030CF4
:103CE0000CF0803CB7EB0C2F03EA162208BFAA4267
:103CF00051D151F8045BBCF1000F82EA03034FEA93
:103D0000056208BF934240D1E2E751F8045B00BF6F
:103D100050F8043B4FEA1545A3F1013C2CEA030C93
:103D20000CF0803CB7EB0C4F03EA164208BFAA42E6
:103D300031D151F8045BBCF1000F82EA03034FEA72
:103D4000054208BF934220D1E2E751F8045B00BF6F
:103D500050F8043B4FEA1565A3F1013C2CEA030C33
:103D60000CF0803CB7EB0C6F03EA166208BFAA4266
:103D700011D151F8045BBCF1000F82EA03034FEA52
:103D8000052208BF934200D1E2E719BA12BA0AE04D
:103D900019BA22BA07E011BA2ABA04E019BA2ABA43
:103DA00001E011BA22BA9CFA8CF0DDE90067DDE986
:103DB00002451DF1100D38B1B0FA80F0C0F11800C5
:103DC00021FA00F122FA00F20120914298BF8041CD
:103DD000704700BF80EA0102844612F0030F4FD102
:103DE00011F0030F32D14DF8044D11F0040F51F8CA
:103DF000043B0BD0A3F101329A4312F0803F04BF81
:103E00004CF8043B51F8043B16D100BF51F8044B69
:103E1000A3F101329A4312F0803FA4F101320BD199
:103E20004CF8043BA24312F0803F04BF51F8043B1E
:103E30004CF8044BEAD023460CF8013B13F0FF0F7B
:103E40004FEA3323F8D15DF8044B704711F0010FAE
:103E500006D011F8012B0CF8012B002A08BF70477F
:103E600011F0020FBFD031F8022B12F0FF0F16BF76
:103E70002CF8022B8CF8002012F47F4FB3D170473E
:103E800011F8012B0CF8012B002AF9D1704700BF63
:103E900020F0030110F00300C0F1000051F8043BD2
:103EA00000F1040C4FEACC0C6FF000021CBF22FAA8
:103EB0000CF213434FF0010C4CEA0C2C4CEA0C4C66
:103EC000A3EB0C0222EA030212EACC1204BF51F85F
:103ED000043B0430F4D013F0FF0F1FBF013013F484
:103EE0007F4F013013F47F0F18BF0130704700BFC0
:103EF0002DE9F04F946883B0924680460D461668CF
:103F0000002C6FD04FF0000B08688B685C46002CCB
:103F100043D09C421F4645D3AB8913F4906F44D0E5
:103F20006F69296907EB470707EBD777C1EB0009F2
:103F3000621C7F104A44974234BF17463A465B05DD
:103F400035D51146404600F0D1FF002839D0296907
:103F50004A46019001F0B0FAAA89019B22F49062CE
:103F600042F08002AA81C9EB070203EB09006F61EE
:103F70002B612860AA602746A1464A46594601F0AF
:103F800011FBDAF80820AB682868DB1B4844141BD7
:103F9000AB602860CAF8084024B3D6F800B0746853
:103FA0000836B4E72746A146E7E7B946E5E74046C5
:103FB00001F062FB03460028D5D14046296900F094
:103FC000C9FEAA890C23C8F8003042F04002002341
:103FD0004FF0FF30AA81CAF80830CAF8043003B0A5
:103FE000BDE8F08F2046CAF8044003B0BDE8F08F6A
:103FF0002DE9F04F8A468989B1B090460A060993A7
:10400000029004D5DAF81030002B00F04C85002324
:1040100020AF0B9315931493089313973E4698F88B
:104020000030002B00F0A283252B00F09F8308F1C5
:10403000010201E0252B04D0137814460132002B35
:10404000F8D1C8EB04057DB1149B159A01332A44BD
:10405000072BC6F8008075601592149300F3308426
:1040600008360898284408902378002B00F0CA836B
:1040700000214FF0000204F1010863784FF0FF3493
:104080008DF84720059101910394084608F1010835
:10409000A3F12002582A00F29E82DFE812F0030109
:1040A0009C029C02CF009C029C029C029C029C02EF
:1040B0009C025900D6009C0264003D029C022F0223
:1040C00021022102210221022102210221022102D8
:1040D00021029C029C029C029C029C029C029C026B
:1040E0009C029C029C0201029C029C029C029C027B
:1040F0009C029C029C029C029C029C027A029C02F2
:104100009C029C029C029C025A029C029C0272012C
:104110009C029C029C029C029C029C029C029C02AF
:104120009C029C020A01B4019C029C029C02AB010D
:10413000B4019C029C02A0019C028D01A600B80063
:10414000F8019C02D2019C026B009C029C02DA00E6
:10415000DDF824C0DCF800000CF10403002880F234
:104160001E8440420993019C44F00404019498F891
:1041700000308BE7019C0590A00640F1F581099D78
:10418000EB1D23F0070303F1080CD3E90045CDF83C
:1041900024C00123039A4FF0000100208DF847103E
:1041A000069207900399002905DBDDF804C02CF086
:1041B000800CCDF804C054EA050040F0D982039980
:1041C000002940F0D5821BB9019CE20700F1118360
:1041D000B946039C069DA542B8BF2546079C049599
:1041E000002C7CD00135049579E0DDF804C0059001
:1041F0001CF0200300F0D881099CE31D23F0070385
:1042000003F108050995D3E900450023C2E7099B9E
:10421000DDF804C0099D0590BC4804351C683022B7
:1042200078234CF0020C09958DF84930CDF804C084
:1042300000258DF848200B900223ABE7019D45F047
:104240000105019598F8003020E798F800302B21FF
:104250001CE7019DAD4CAA0605900B948DF8471004
:1042600040F19880DDF824C00CF1070222F007022B
:1042700002F108040994D2E90045DDF804C01CF0FD
:10428000010F00F0BD8154EA050000F0B981302231
:104290004CF0020C8DF84930CDF804C08DF8482060
:1042A000022377E798F8003000297FF4EFAE202151
:1042B000ECE6099BDDF824C01B6801244FF00005E3
:1042C0000CF1040C059004948DF847508DF858308B
:1042D000CDF824C006940DF1580900240394019DE3
:1042E00015F00205079505D0DDF810C00CF1020CA1
:1042F000CDF810C0019B13F084030A9340F0828133
:10430000059DDDF810C0CCEB0504002C40F37A814C
:10431000102C1599149ADFF8FCB126DD5B461025A8
:10432000A3461C4606E0ABF1100BBBF1100F06F1E3
:10433000080617DD01321031072A1591149286E81C
:104340003000F0DD0298514613AAFFF7D1FD002896
:1043500040F05F82ABF1100BBBF1100F1599149A6E
:104360003E46E7DC23465C469B4601322144072A51
:1043700015911492C6F800B0746000F3F18208360B
:1043800042E1019D624CAA0605908DF847100B94FE
:104390003FF568AF019DED0600F12F83019C640697
:1043A00040F15783DDF824C00025BCF800400CF133
:1043B000040CCDF824C060E7019C8DF84710A406DA
:1043C00000F12583DDF804C01CF0100F00F04783D6
:1043D000099C089D2368043409941D601FE698F821
:1043E000003042466C2B00F01F83019D45F0100504
:1043F00001954BE6DDF804C04CF0400CCDF804C04C
:1044000098F8003042E6019D0590AB068DF8471004
:1044100050D5DDF824C00CF1070121F00701D1E9E6
:1044200000230831099114461D46002A73F1000C3F
:10443000C0F2D5829DF847000399079006910123A9
:10444000B0E6099C4FF00005D4F800908DF8475075
:1044500005900434039DB9F1000F00F01883002D7E
:104460004846C0F2098300212A4600F0DBFF0028FD
:1044700000F03383C9EB0000A842B8BF0546099499
:104480009DF847400695002507940395A1E6DDF8C1
:1044900004C04CF0200CCDF804C098F80030F5E5CD
:1044A000019C059044F010040194019D8DF8471083
:1044B000AB06AED4019CE50600F18582DDF804C0B0
:1044C0001CF0400F00F07F82DDF824C0BCF90040F2
:1044D0000CF1040CE51722462B46CDF824C0A4E7C6
:1044E000A3F13002002018F8013B00EB800002EB42
:1044F0004000A3F13002092AF5D9C9E5019D45F034
:104500008005019598F80030C0E500BF08680000FC
:10451000F46700002468000098F8003008F10105F5
:104520002A2B00F0E882A3F13002092A98BF002468
:1045300000F2DC8215F8013B04EB840402EB440436
:10454000A3F13002092AF5D944EAE4740394A84699
:104550009EE5DDF804C005904CF0100CCDF804C0C9
:10456000019CA0063FF50BAE019CE10600F1238201
:10457000DDF804C01CF0400F00F01D82DDF824C0FF
:104580000025BCF800400CF1040C0123CDF824C038
:1045900000E6019D059045F010050195DDF804C089
:1045A0001CF020037FF428AEDDF804C01CF01002DC
:1045B00040F0FA81DDF804C01CF0400300F0F48103
:1045C000DDF824C01346BCF800400CF1040C0025B3
:1045D000CDF824C0DEE505908DF84710002B00F0E3
:1045E00011814FF0010C4FF00000CDF810C08DF894
:1045F00058308DF84700CDF818C00DF158096CE619
:104600000223C7E51599149A9DF8473063B101322A
:1046100001310DF147000123072A1591149286E814
:10462000090000F385810836079B5BB10132023136
:1046300012A80223072A1591149286E8090000F3B4
:10464000838108360A9C802C00F0EE80039D069B37
:10465000EC1A002C30DD102CA44D23DD2B464FF03E
:10466000100B25461C4604E0103D102D06F10806EF
:1046700015DD01321031072A1591149286E81008D1
:10468000F2DD0298514613AAFFF732FC002840F0F1
:10469000C080103D102D1599149A3E46E9DC234642
:1046A0002C461D4601322144072A1591149235608B
:1046B000746000F30F810836069C01322144072AFA
:1046C00015911492C6F80090746000F3E6800836E5
:1046D000019D6B0736D5059DDDF810C0CCEB0504B8
:1046E000002C2FDD102C149ADFF804B220DD1025E9
:1046F0000B46DDF8089004E0103C102C06F108068B
:1047000015DD01321033072A15931492C6F800B054
:104710007560F1DD4846514613AAFFF7E9FB002812
:1047200077D1103C102C159B149A3E46E9DC1946B3
:1047300001322144072A15911492C6F800B0746022
:1047400000F32381089CDDF810C0059DAC45ACBF8B
:10475000644464190894002940F0A98098F8003056
:10476000002014903E46002B7FF45EAC44467BE470
:10477000012B00F0BF80022B0DF17F0319D1DDF872
:104780002CC0194604F00F0022091CF8000042EA70
:1047900005722B09087052EA0300894614461D462B
:1047A00001F1FF31EED1CDE90E23C9EB07030693EA
:1047B0000FE5E00840EA457004F00702E9083032EE
:1047C00050EA010C99461A7004460D4603F1FF3376
:1047D000EFD1019CCDE90C01E00749460ED5302A06
:1047E000E3D09946C9EB07043023069401F8013C55
:1047F000EFE430230DF1C00909F8413DC9EB07058D
:104800000695E6E4159B23B10298514613AAFFF7DB
:104810006FFBBAF80C30089813F0400F18BF4FF038
:10482000FF3031B0BDE8F08F059DDDF810C0CCEB56
:104830000504002C7FF70AAF102C2C4D22DD2B46EF
:104840004FF0100B25461C4604E0103D102D06F1DC
:10485000080614DD01321031072A1591149286E8FA
:104860001008F2DD0298514613AAFFF741FB002819
:10487000CFD1103D102D1599149A3E46EADC2346FF
:104880002C461D4601322144072A159114923560A9
:10489000746000F3D2800836D8E60298514613AA15
:1048A000FFF726FB0028B4D115993E4610E7029881
:1048B000514613AAFFF71CFB00283FF44FAFA8E7AF
:1048C0000298514613AAFFF713FB0028A1D13E46D8
:1048D000FFF7C7BB0298514613AAFFF709FB002850
:1048E00097D11599149A3E46E6E600BFE4670000AA
:1048F00024680000002D08BF0A2C3DD30DF17F0B6A
:10490000204629460A22002301F018F930328BF89C
:104910000020204629460A22002301F00FF9044610
:104920000D4654EA050CD9460BF1FF3BE8D13CE7B4
:104930000298514613AAFFF7DBFA00287FF469AF0B
:104940001599149A3E466FE60298514613AAFFF74E
:10495000CFFA00287FF45DAF1599149A3E4671E6B0
:104960000298514613AAFFF7C3FA00287FF451AF0B
:104970001599149A3E4647E60DF1C009303409F8FE
:10498000414DC9EB0705069523E40298514613AA49
:10499000FFF7AEFA00287FF43CAF1599D2E60993F1
:1049A00098F80030FFF772BB099D2C680435099513
:1049B0000025FFF7EFBB099D01232C6804350995FD
:1049C0000025FFF7E7BB099D2C6804350995E5171D
:1049D00022462B46002A73F1000CBFF62BAD039A3A
:1049E0004FF02D0B644265EB45058DF847B0CDF8CF
:1049F0001CB006920123FFF7D5BBDDF824C00025CB
:104A0000DCF800400CF1040CCDF824C035E4099D1D
:104A1000089C2968E5172B46099D2246043509950F
:104A2000C1E90023FFF7FBBA019C08F1010844F03B
:104A3000200401945378FFF729BB0298514613AA2A
:104A4000FFF756FA00287FF4E4AE1599149A3E4613
:104A5000FCE5099D2C680435099500250DE4DDF879
:104A600004C01CF0400F2CD0099C089D236804341E
:104A700009941D80FFF7D3BA0994FFF709FA9DF84E
:104A800047400025069007940395FFF7A2BB062D2B
:104A900028BF062525EAE57C06950994CDF810C0C7
:104AA000DFF8849019E4402100F020FACAF80000F1
:104AB000CAF81000002831D04023CAF81430FFF79C
:104AC000A6BADDF824C0089CDCF800300CF1040C18
:104AD000CDF824C01C60FFF7A2BA9DF84750099496
:104AE0000795039D03900695FFF773BBA846002525
:104AF0000395FFF7CDBA099CDDF824C024680CF1BA
:104B00000402002C98F8013003940992A846BFF6DD
:104B1000BDAA4FF0FF340394FFF7B8BA029C0C23F0
:104B200023604FF0FF307CE61C680000F0B59BB0BE
:104B30000D466FF000444FF402774FF6FF7669465A
:104B400000950495ADF80C7002940594ADF80E60D4
:104B5000FFF74EFA009B00221A701BB0F0BD00BF99
:104B600030B4044C0D46134601462A46206830BC3A
:104B7000FFF7DCBF60040020024B13B1024800F0D5
:104B80007DB8704700000000894C00002DE9F04F0F
:104B9000384B85B01B68029003F5A47201930F4651
:104BA0000392019BD3F84881B8F1000F1CD0DDF8C7
:104BB0000CB04FF00109DA46D8F804305C1E11D46D
:104BC00008F188059E1C05EB830508EB860677B186
:104BD000EB6FBB420BD0013C631CA5F10405A6F1B1
:104BE0000406F4D1244A7ABB05B0BDE8F08FD8F8AA
:104BF000042056F8043C013AA24216BF0022C8F82D
:104C0000044046F8042C002BE5D009FA04F2D8F849
:104C10008811D8F804B00A4210D0D8F88C110A4292
:104C20000ED1029855F8041C9847D8F804305B451B
:104C3000B7D1DAF800304345CDD0B2E79847F4E772
:104C400055F8040C9847F0E7D8F804306BB9D8F859
:104C5000003063B14046CAF80030AFF30080DAF8A4
:104C60000080B8F1000FA7D1BEE7D8F80030C246E7
:104C70009846F6E7E06700000000000001460020CB
:104C80000246034600F0EABE38B5094D094C641BE4
:104C9000A41018BF05EB840505D0013C55F8043D70
:104CA0009847002CF9D1BDE8384001F02DBA00BF7B
:104CB000000A0020040A0020F8B5234D0F460446E0
:104CC00000F0D6FCAB685E6826F00306F11B01F627
:104CD000EF7121F47F6121F00F01A1F58057B7F545
:104CE000805F07DB2046002100F0A6FEAB6833445E
:104CF000984204D0204600F0BDFC0020F8BD2046BC
:104D0000794200F099FE01300DD0104BAA68196865
:104D1000F61B46F001062046C91B5660196000F0DC
:104D2000A9FC0120F8BD2046002100F085FEAB68FB
:104D3000C21A0F2ADEDD064D04492D6842F0010239
:104D4000401B5A600860D5E764040020F02700206B
:104D5000700800202DE9F0410D460646002955D087
:104D600000F086FC55F8041CDFF870C1A5F10804BA
:104D700021F00103E218DCF808005768904227F0A0
:104D8000030768D011F00101576032D00021D0191B
:104D90004068C00706D43B44906800294DD0D268D3
:104DA000C260906043F001026260E350E1B9B3F584
:104DB000007F2DD35A0A042A69D898093830410057
:104DC0000CEB810CDCF808204449624565D0516841
:104DD00021F003018B4202D292689445F7D1D36847
:104DE000E360A2609C60D4603046BDE8F04100F012
:104DF00041BC55F8085C0CF10808641BA0682B4402
:104E0000404542D0E568C560A860C0E7BDE8F081D4
:104E1000DB089A1001209040DCF804100CEBC3036F
:104E20009A680143A260E360CCF8041030469C60AD
:104E3000D460BDE8F04100F01DBC294DA842AED1C0
:104E400043F00102CCF81440CCF81040E060A060C0
:104E50006260E350C8E71F44CB0707D455F8081C2D
:104E6000641AE368A2680F44D3609A601D4B47F050
:104E700001021B6862609F42CCF80840B4D31A4B11
:104E800030461968FFF718FFAEE701217FE7142AC3
:104E90000BD802F15B00410092E7801001258540AC
:104EA00048681346284348609AE7542A03D8180BE9
:104EB0006E30410084E7B2F5AA7F03D8D80B773073
:104EC00041007DE740F254518A4203D8980C7C306F
:104ED000410075E7FC217E2072E700BF64040020DA
:104EE0006C0400206C080020EC2700202DE9F04F16
:104EF00001F10B05162D83B0064627D935F00705BD
:104F000027D4A94225D8304600F0B2FBB5F5FC7F86
:104F100026D2C14F4FEAD50C07EBCC03DC689C428C
:104F200000F0D2816368E26823F0030323445868E9
:104F3000A16840F00105CA60304691605D6000F0F4
:104F400099FB0834204603B0BDE8F08F1025A94234
:104F5000D9D900240C232046336003B0BDE8F08F7C
:104F60005FEA552C00F08980BCF1040F00F26081EB
:104F70004FEA951C0CF1380C4FEA4C01A64F07EB99
:104F80008101CC68A14205D10CE0002B79DAE468FC
:104F9000A14207D0626822F00302531B0F2BF4DDFD
:104FA0000CF1FF3C0CF1010C9B4B3C6903F1080E2A
:104FB000744500F07E81616821F003014A1B0F2ACD
:104FC00000F36481002AC3F814E0C3F810E069DA42
:104FD000B1F5007F80F03A81C9088A104FF00108CE
:104FE00008FA02F803EBC1015A68886848EA02022D
:104FF000A060E1605A608C60C4604FEAAC0301209D
:10500000984090425BD8024206D12CF0030C40003D
:1050100002420CF1040CFAD007EBCC084446E146FE
:10502000E3689C4207D146E1002A80F25781DB68A1
:105030009C4200F04081596821F003014A1B0F2A6D
:10504000F2DD1C4654F808CFD96845F0010942F05A
:1050500001081D44C3F804903046CCF80C10C1F888
:1050600008C07D613D61C5F80CE0C5F808E0C5F8F1
:105070000480AA5000F0FEFA64E77E214FF03F0C56
:105080007CE722445068E368A16840F00105CB60EA
:1050900030469960556000F0EDFA0834204603B0C0
:1050A000BDE8F08F21444B68304643F001034B606C
:1050B00000F0E0FA0834204603B0BDE8F08FBC6889
:1050C000636823F00309A94504D3C5EB09030F2B3B
:1050D00000F39180514B524A1968136805EB010A9D
:1050E000013304EB090B00F061810AF5805A0AF1E3
:1050F0000F0A2AF47F6A2AF00F0A304651460192BD
:1051000000F09AFCB0F1FF3F8046019A00F0018167
:10511000834500F2FB80DFF814C1C345DCF80030A2
:105120005344CCF8003000F04A8112683C49013207
:105130001BBFCBEB080B5B44C1F80080CCF8003000
:1051400018F0070300F01481C3F10802C3F580537F
:1051500090440833C244CAF30B0ACAEB030A51460F
:105160003046CDF804C000F067FC431CDDF804C0F5
:1051700000F03581C8EB0002524442F00102DCF835
:105180000030BC425344C7F80880CCF80030C8F85F
:105190000420DFF898A015D0B9F10F0F40F2EB8092
:1051A0006168A9F10C0222F0070201F0010142EA54
:1051B000010E0520A1180F2AC4F804E04860886099
:1051C00000F21181174ABC6811688B4288BF1360D6
:1051D000154A11688B4288BF1360626822F003028F
:1051E0009542C5EB020301D80F2B04DC304600F0DA
:1051F00041FA0024A6E645F0010243F001032544EC
:1052000062603046BD606B6000F034FA08342046BE
:1052100003B0BDE8F08F00BF64040020EC2700203D
:1052200070080020E8270020E4270020F027002055
:10523000BCF1140F61D9BCF1540F00F28F804FEA1A
:10524000153C0CF16E0C4FEA4C0197E64B0A042B0F
:1052500058D9142B00F2AD8003F15B02500007EB2C
:1052600080008368DFF8B881834200F08A805A6842
:1052700022F00302914202D29B689842F7D1D9688A
:105280007A68E160A3608C60DC60B6E645F00107F7
:1052900042F001012544676030465D611D61C5F83B
:1052A0000CE0C5F808E06960AA50083400F0E2F9A3
:1052B00048E65A68A1E609F1010919F0030F04F163
:1052C00008047FF4ADAE2DE004F108036469A34245
:1052D00008BF0CF1020C3FF467AE23E6194448689E
:1052E0001C4654F8082FDB6840F001054D6030463D
:1052F000D3609A6000F0BEF924E60CF15B0C4FEA33
:105300004C013BE68A0938325000A8E7BC423FF422
:1053100002AFBC68626822F0030261E7D8F800803F
:1053200098457AD11CF0030FA8F108030CF1FF3C5B
:10533000F4D17B6823EA00037B60400098423FF68B
:10534000BEAE00283FF4BBAE0342CC467FF464AE51
:10535000400003420CF1040CFAD05DE6BCF5AA7FD4
:1053600019D84FEAD53C0CF1770C4FEA4C0105E611
:105370004FF48053EEE60123C8F80430444600227F
:105380002EE7921001209040D8F8042019460243DD
:10539000C8F8042075E740F254539C451BD84FEAE7
:1053A000954C0CF17C0C4FEA4C01E7E50AF1100A30
:1053B000A3E6542B1FD80A0B6E3250004FE7CBF3F5
:1053C0000B0100297FF4B1AE0AEB0901BA6841F084
:1053D00001015160F6E6FC214FF07E0CCEE5012282
:1053E0004FF0000ACBE604F108013046FFF7B2FCAB
:1053F000DAF80030E6E6B3F5AA7F03D8CA0B7732B5
:1054000050002CE740F25452934203D88A0C7C326D
:10541000500024E7FC207E2221E77B688DE700BF57
:1054200064040020830770B4C9B240D0541E2AB36C
:1054300003788B4223D0431C04E0FCB1057814466A
:105440008D421CD013F0030F184604F1FF3203F114
:105450000103F2D1032C14D8651E54B303788B4298
:105460000DD0421C002302E004788C4207D0AB42EE
:10547000104603F1010302F10102F5D1002070BCD6
:10548000704741EA0126034646EA06461A6818466E
:105490007240A2F1013525EA020212F0803F03F1C9
:1054A0000403D9D1043C032C1846EFD8D4E71446A2
:1054B000D0E72046E3E700BF844641EA000313F04B
:1054C000030349D1403A23D30B6803604B68436020
:1054D0008B688360CB68C3600B6903614B69436170
:1054E0008B698361CB69C3610B6A03624B6A436258
:1054F0008B6A8362CB6AC3620B6B03634B6B436340
:105500008B6B8363CB6BC36340304031403ADBD25B
:1055100030320BD30B6803604B6843608B68836049
:10552000CB68C36010301031103AF3D20C3205D37F
:1055300051F8043B40F8043B043AF9D2043208D055
:10554000D2071CBF11F8013B00F8013B01D30B88C7
:1055500003806046704700BF082A13D38B07B1D081
:1055600010F00303AED0C3F10403D21ADB071CBF53
:1055700011F8013B00F8013BA4D331F8023B20F8BD
:10558000023B9FE7043AD9D3013A11F8013B00F8F6
:10559000013BF9D20B7803704B7843708B788370A2
:1055A000604670478842F0B410D98C18A0420DD2E2
:1055B0008518531E42B121462A4611F8014D013B80
:1055C00002F8014D5C1CF8D1F0BC70470F2A44D999
:1055D00040EA01039B0744D1A2F110073F0900EB09
:1055E000071610360C4603462568103343F8105C46
:1055F0006568103443F80C5C54F8085C43F8085CA8
:1056000054F8045C43F8045CB342EDD17B1C02F017
:105610000F0C1B01BCF1030F1944034423D90E46A0
:105620001D46644656F8047B043C032C45F8047B75
:10563000F8D8ACF1040424F00304043402F00302AB
:1056400023442144002ABFD01A4411F8014B03F827
:10565000014B9342F9D1F0BC70470346002AF3D1C5
:10566000B2E70346F0E76246002AEDD1ACE700BF9F
:10567000704700BF704700BF2DE9F04F0C4683B064
:1056800090468146002900F0BA80FFF7F1FF08F14B
:105690000B0654F8043C162E23F00305A4F108076A
:1056A0004BD810210E46B0454CD88D4251DADFF868
:1056B00084B37819DBF808E0864500F0A6804268DC
:1056C00022F0010C8444DCF804C01CF0010F54D01B
:1056D00000221046DB076FD454F8083CC3EB070ADE
:1056E000DAF8043023F003032B44002862D070451D
:1056F00000F0E98002EB030E8E455BDBC368826835
:10570000D046D3609A6058F8081FDAF80C302A1F88
:10571000242ACB60996000F22381132A40F2B080E2
:1057200023681B2ACAF808306368CAF80C3000F2F4
:105730002B8108340AF11003A3E026F00706002E9F
:105740003146B0DA0C230020C9F8003003B0BDE8C0
:10575000F08FA046AA1B0F2A03F001031AD82B438F
:105760007B603D446B6843F001036B604846FFF784
:1057700081FF404603B0BDE8F08F22F0030202EB48
:10578000050C8C45A6DBC2688168A046CA606546E8
:105790009160DFE7B919334342F001007B600A44AE
:1057A00048605368083143F0010353604846FFF7EF
:1057B000D1FADBE78B4233DA41464846FFF796FBE6
:1057C00080460028D2D054F8043CA0F1080123F010
:1057D00001023A44914200F0BC802A1F242A6ED86C
:1057E000132A42D80346224611681960516859604D
:1057F00092689A6021464846FFF7ACFAB6E7114630
:1058000003B0BDE8F04FFFF771BBDEF8042006F1EE
:10581000100C22F00302501960453DDA704659E73A
:10582000D04658F8080FDAF80C102A1F242AC16055
:10583000886000F2A080132A40F29B8021681B2A16
:10584000CAF808106168CAF80C1000F2B280083477
:105850000AF1100221681D461160616857465160C7
:10586000A3689360DAF8043074E723681B2A0360A6
:105870006368436062D800F1080304F10802B3E7EB
:105880004346226875461A60626857465A60A268A5
:105890009A60DAF804305DE7831B374443F0010374
:1058A000CBF808707B6054F8043C484603F00103D1
:1058B0001E4344F8046CFFF7DDFE20465AE72146FC
:1058C000FFF770FE96E702EB030C06F11002944519
:1058D000FFF670AF574657F8081FDAF80C302A1F4A
:1058E000242ACB60996000F28680132A77D9236836
:1058F0001B2ACAF808306368CAF80C3000F28480AA
:1059000008340AF1100322681A6062685A60A268BB
:105910009A60C6EB0C020AEB060342F00102CBF8D8
:1059200008305A60DAF80430484603F001031E4399
:10593000CAF80460FFF79EFE38461BE7A368242AD6
:105940008360E368C3602BD000F1100304F1100200
:105950004AE750F8042CA04622F003021544F9E669
:105960002146404675465746FFF71CFEDAF80430DC
:10597000F0E642466EE7214640461D465746FFF791
:1059800011FEDAF80430E5E6A368242ACAF81030DC
:10599000E368CAF8143018D010340AF1180370E71D
:1059A000226900F118030261616904F11802416182
:1059B0001AE7A168242ACAF81010E168CAF814107E
:1059C0000FD010340AF1180244E722690AF12003CB
:1059D000CAF8182062691834CAF81C2051E73B46FF
:1059E00091E721690AF12002CAF818106169183498
:1059F000CAF81C102EE721463846CDF804C0FFF740
:105A0000D1FDDDF804C084E7A368242ACAF8103069
:105A1000E368CAF8143003D010340AF1180372E7AF
:105A200022690AF12003CAF8182062691834CAF8FA
:105A30001C2068E76404002038B5074C00230546A5
:105A40000846236000F05EF8431C00D038BD236890
:105A5000002BFBD02B6038BD642A0020F0B5274C0A
:105A600085B026680746D6F84841002C40D06568C6
:105A70001F2D1EDD224818B94FF0FF3005B0F0BDD4
:105A80004FF4C870039102920193AFF30080039921
:105A90000446029A019B0028EED0D6F84851002017
:105AA000256060600546C6F84841C4F88801C4F81E
:105AB0008C013FB96B1C00200235636044F825104F
:105AC00005B0F0BD0126AE4004EB8500C0F888208B
:105AD000D4F88821022F42EA0602C4F88821C0F8CF
